:100937000A0D20666F7277617264000A0D2062618A
:10094700636B77617264000A0D20526967687400EF
:100957000A0D204C656674000A0D205550000A0DDB
:1009670020446F776E000A0D2043757474657220FA
:100977004F6E000A0D20437574746572204F6666CA
:10098700000A0D205761746572206F6E000A0D20F2
:100997005761746572206F6666000A0D2053746F85
:1009A7007000312D66726F6E742C20322D62616378
:1009B7006B2C20332D6C6566742C20342D7269677F
:1009C70068742C20352D73746F7000362D75702C5C
:1009D700372D446F776E2C382D43757474657220EC
:1009E7004F6E2C392D437574746572204F66662CD3
:1009F700772D7761746572206F6E2C20732D776168
:100A07007465722073746F700057656C636F6D65E2
:100A1700200053656E6420636F6D6D616E64200AFC
:020A27000D00C0
:050B1000D2AFD2AC22BF
:0C0AF000758920758DFD759850D28E22FE
:080B08008F993099FDC299227A
:060AAC008B0C8A0D890E7F
:100AB200E4FDFCAB0CAA0DA90E8D828C83120A7F79
:0D0AC200FF600A120B080DBD00010C80E65C
:010ACF002204
:03002300020800D0
:10080000C0E0C0F0C083C082C0D075D000C000C0BE
:0D08100001C002C003C004C005C006C0073F
:10081D00859908C298E508B431117BFF7A097937BB
:10082D00120AACD2B3C2B4D2B5C2B6E508B4321115
:10083D007BFF7A097942120AACC2B3D2B4C2B5D2E7
:10084D00B6E508B433117BFF7A09794E120AACD2A2
:10085D00B3C2B4C2B5D2B6E508B434117BFF7A0980
:10086D007957120AACC2B3D2B4D2B5C2B6E508B448
:10087D0036187BFF7A09795F120AACC2A4D2A57F24
:10088D00F47E01120AD0C2A4C2A5E508B437187BC4
:10089D00FF7A097965120AACD2A4C2A57FF47E0154
:1008AD00120AD0C2A4C2A5E508B4380D7BFF7A099F
:1008BD00796D120AACD2A6C2A7E508B4390D7BFF3B
:1008CD007A09797A120AACC2A6C2A7E508B4770BE9
:1008DD007BFF7A097988120AACD287E508647360C8
:1008ED0005E508B4350B7BFF7A097994120AACC281
:1008FD0087E508B435197BFF7A0979A1120AACC2D4
:0F090D00B3C2B4C2B5C2B6C2A4C2A5C2A6C2A725
:10091C00D007D006D005D004D003D002D001D0002F
:0B092C00D0D0D082D083D0F0D0E032D9
:100A2900C2B3C2B4C2B5C2B6C2A4C2A5C2A6C2A745
:100A39007BFF7A0979A9120AAC7BFF7A0979D2126C
:100A49000AACC287120B10120AF07F017E00120A4B
:100A5900D07BFF7A0A7910120AAC7F0A120B087B45
:100A6900FF7A0A7919120AAC7F0A120B087F647E91
:060A790000120AD080E922
:100AD000E4FDFCE4FBFAC3EB9FEA9E50070BBB006E
:0F0AE000010A80F20DBD00010CED64C84C70E4FA
:010AEF0022E4
:03000000020AFCF5
:0C0AFC00787FE4F6D8FD75810F020A290E
:100A7F00BB010CE58229F582E5833AF583E022502C
:100A8F0006E92582F8E622BBFE06E92582F8E22276
:0D0A9F00E58229F582E5833AF583E4932290
:00000001FF
